{
  "contractName": "Ownable",
  "abi": [
    {
      "inputs": [],
      "payable": false,
      "stateMutability": "nonpayable",
      "type": "constructor"
    },
    {
      "constant": false,
      "inputs": [
        {
          "name": "newOwner",
          "type": "address"
        }
      ],
      "name": "transferOwnership",
      "outputs": [],
      "payable": false,
      "stateMutability": "nonpayable",
      "type": "function"
    }
  ],
  "bytecode": "0x6060604052341561000f57600080fd5b336000806101000a81548173ffffffffffffffffffffffffffffffffffffffff021916908373ffffffffffffffffffffffffffffffffffffffff1602179055506101858061005e6000396000f300606060405260043610610041576000357c0100000000000000000000000000000000000000000000000000000000900463ffffffff168063f2fde38b14610046575b600080fd5b341561005157600080fd5b61007d600480803573ffffffffffffffffffffffffffffffffffffffff1690602001909190505061007f565b005b6000809054906101000a900473ffffffffffffffffffffffffffffffffffffffff1673ffffffffffffffffffffffffffffffffffffffff163373ffffffffffffffffffffffffffffffffffffffff161415156100da57600080fd5b600073ffffffffffffffffffffffffffffffffffffffff168173ffffffffffffffffffffffffffffffffffffffff161415151561011657600080fd5b806000806101000a81548173ffffffffffffffffffffffffffffffffffffffff021916908373ffffffffffffffffffffffffffffffffffffffff160217905550505600a165627a7a72305820697bd823cc932ba34e429afecab4ec39db0ca6ae8641b8922fbd50ff0e27b92e0029",
  "source": "pragma solidity ^0.4.18;\n\ncontract Ownable {\n\n\taddress owner;\n\n\tfunction Ownable () public {\n\t\towner = msg.sender;\n\t}\t\n\n\tmodifier onlyOwner() { \n\t\trequire( msg.sender == owner); \n\t\t_; \n\t}\n\n\tfunction transferOwnership(address newOwner) public onlyOwner {\n\t\trequire(newOwner != address(0));   \n\t\towner = newOwner;\n\t}\t\n}\n\ncontract LCoin is Ownable{\n\n\tstring public name = \"LCoin\";\n\tstring public symbol = \"LC\";\n\tuint32 public constant decimal = 18;\n\n\tuint public totalSupply = 0;\n\n    address public owner;\n    mapping (address => uint) balances;\n\tmapping (address => mapping (address => uint)) allowed;\n    \n    event Transfer(address indexed _from, address indexed _to, uint _value);\n    event Approval(address indexed _owner, address indexed _spender, uint _value);\n\n    function mint(address _to, uint _value) public onlyOwner {\n\t\tassert(totalSupply + _value >= totalSupply && balances[_to] + _value >= balances[_to]);\n\t\tbalances[_to] += _value;\n      \ttotalSupply += _value;\n\t}\n\t\n\tfunction balanceOf(address _owner) public constant returns (uint balance) {\n        return balances[_owner];\n    }\n \n    function transfer(address _to, uint _value) public returns (bool success) {\n    \tif(balances[msg.sender] >= _value && balances[_to] + _value >= balances[_to]) {\n\t        balances[msg.sender] -= _value; \n\t        balances[_to] += _value;\n\t        Transfer(msg.sender, _to, _value);\n\t        return true;\n        }\n\n        return false;\n    }\n    \n    function transferFrom(address _from, address _to, uint _value) public returns (bool success) {\n    \tif(allowed[_from][msg.sender] >= _value && balances[msg.sender] >= _value && balances[_to] + _value >= balances[_to]) {\n    \t\tallowed[_from][msg.sender] -= _value;\n\t    \tbalances[_from] -= _value; \n\t        balances[_to] += _value;\n\t        Transfer(_from, _to, _value);\n\t        return true; \n\t    }\n\n    \treturn false;\n    }\n    \n    function approve(address _spender, uint _value) public returns (bool success) {\n    \tallowed[msg.sender][_spender] = _value;\n        Approval(msg.sender, _spender, _value);\n        return true;\n    }\n    \n    function allowance(address _owner, address _spender) public constant returns (uint remaining) {\n        return allowed[_owner][_spender];\n    }\n\n    function kill () public onlyOwner returns (bool){\n    \tselfdestruct(msg.sender);\n    } \n}\n\n",
  "sourcePath": "/Users/irene/Documents/truffle/simple_token/contracts/LCoin.sol",
  "compiler": {
    "name": "solc",
    "version": "0.4.19+commit.c4cbbb05.Emscripten.clang"
  },
  "schemaVersion": "1.0.1",
  "updatedAt": "2018-03-16T16:11:51.202Z"
}